{
  "contractName": "Token",
  "abi": [
    {
      "inputs": [
        {
          "internalType": "string",
          "name": "name",
          "type": "string"
        },
        {
          "internalType": "string",
          "name": "symbol",
          "type": "string"
        }
      ],
      "stateMutability": "nonpayable",
      "type": "constructor"
    },
    {
      "anonymous": false,
      "inputs": [
        {
          "indexed": true,
          "internalType": "address",
          "name": "owner",
          "type": "address"
        },
        {
          "indexed": true,
          "internalType": "address",
          "name": "approved",
          "type": "address"
        },
        {
          "indexed": true,
          "internalType": "uint256",
          "name": "tokenId",
          "type": "uint256"
        }
      ],
      "name": "Approval",
      "type": "event"
    },
    {
      "anonymous": false,
      "inputs": [
        {
          "indexed": true,
          "internalType": "address",
          "name": "owner",
          "type": "address"
        },
        {
          "indexed": true,
          "internalType": "address",
          "name": "operator",
          "type": "address"
        },
        {
          "indexed": false,
          "internalType": "bool",
          "name": "approved",
          "type": "bool"
        }
      ],
      "name": "ApprovalForAll",
      "type": "event"
    },
    {
      "anonymous": false,
      "inputs": [
        {
          "indexed": true,
          "internalType": "address",
          "name": "previousOwner",
          "type": "address"
        },
        {
          "indexed": true,
          "internalType": "address",
          "name": "newOwner",
          "type": "address"
        }
      ],
      "name": "OwnershipTransferred",
      "type": "event"
    },
    {
      "anonymous": false,
      "inputs": [
        {
          "indexed": true,
          "internalType": "address",
          "name": "from",
          "type": "address"
        },
        {
          "indexed": true,
          "internalType": "address",
          "name": "to",
          "type": "address"
        },
        {
          "indexed": true,
          "internalType": "uint256",
          "name": "tokenId",
          "type": "uint256"
        }
      ],
      "name": "Transfer",
      "type": "event"
    },
    {
      "inputs": [
        {
          "internalType": "address",
          "name": "to",
          "type": "address"
        },
        {
          "internalType": "uint256",
          "name": "tokenId",
          "type": "uint256"
        }
      ],
      "name": "approve",
      "outputs": [],
      "stateMutability": "nonpayable",
      "type": "function"
    },
    {
      "inputs": [
        {
          "internalType": "address",
          "name": "owner",
          "type": "address"
        }
      ],
      "name": "balanceOf",
      "outputs": [
        {
          "internalType": "uint256",
          "name": "",
          "type": "uint256"
        }
      ],
      "stateMutability": "view",
      "type": "function",
      "constant": true
    },
    {
      "inputs": [
        {
          "internalType": "uint256",
          "name": "tokenId",
          "type": "uint256"
        }
      ],
      "name": "getApproved",
      "outputs": [
        {
          "internalType": "address",
          "name": "",
          "type": "address"
        }
      ],
      "stateMutability": "view",
      "type": "function",
      "constant": true
    },
    {
      "inputs": [
        {
          "internalType": "address",
          "name": "owner",
          "type": "address"
        },
        {
          "internalType": "address",
          "name": "operator",
          "type": "address"
        }
      ],
      "name": "isApprovedForAll",
      "outputs": [
        {
          "internalType": "bool",
          "name": "",
          "type": "bool"
        }
      ],
      "stateMutability": "view",
      "type": "function",
      "constant": true
    },
    {
      "inputs": [],
      "name": "name",
      "outputs": [
        {
          "internalType": "string",
          "name": "",
          "type": "string"
        }
      ],
      "stateMutability": "view",
      "type": "function",
      "constant": true
    },
    {
      "inputs": [],
      "name": "owner",
      "outputs": [
        {
          "internalType": "address",
          "name": "",
          "type": "address"
        }
      ],
      "stateMutability": "view",
      "type": "function",
      "constant": true
    },
    {
      "inputs": [
        {
          "internalType": "uint256",
          "name": "tokenId",
          "type": "uint256"
        }
      ],
      "name": "ownerOf",
      "outputs": [
        {
          "internalType": "address",
          "name": "",
          "type": "address"
        }
      ],
      "stateMutability": "view",
      "type": "function",
      "constant": true
    },
    {
      "inputs": [],
      "name": "renounceOwnership",
      "outputs": [],
      "stateMutability": "nonpayable",
      "type": "function"
    },
    {
      "inputs": [
        {
          "internalType": "address",
          "name": "from",
          "type": "address"
        },
        {
          "internalType": "address",
          "name": "to",
          "type": "address"
        },
        {
          "internalType": "uint256",
          "name": "tokenId",
          "type": "uint256"
        }
      ],
      "name": "safeTransferFrom",
      "outputs": [],
      "stateMutability": "nonpayable",
      "type": "function"
    },
    {
      "inputs": [
        {
          "internalType": "address",
          "name": "from",
          "type": "address"
        },
        {
          "internalType": "address",
          "name": "to",
          "type": "address"
        },
        {
          "internalType": "uint256",
          "name": "tokenId",
          "type": "uint256"
        },
        {
          "internalType": "bytes",
          "name": "data",
          "type": "bytes"
        }
      ],
      "name": "safeTransferFrom",
      "outputs": [],
      "stateMutability": "nonpayable",
      "type": "function"
    },
    {
      "inputs": [
        {
          "internalType": "address",
          "name": "operator",
          "type": "address"
        },
        {
          "internalType": "bool",
          "name": "approved",
          "type": "bool"
        }
      ],
      "name": "setApprovalForAll",
      "outputs": [],
      "stateMutability": "nonpayable",
      "type": "function"
    },
    {
      "inputs": [
        {
          "internalType": "bytes4",
          "name": "interfaceId",
          "type": "bytes4"
        }
      ],
      "name": "supportsInterface",
      "outputs": [
        {
          "internalType": "bool",
          "name": "",
          "type": "bool"
        }
      ],
      "stateMutability": "view",
      "type": "function",
      "constant": true
    },
    {
      "inputs": [],
      "name": "symbol",
      "outputs": [
        {
          "internalType": "string",
          "name": "",
          "type": "string"
        }
      ],
      "stateMutability": "view",
      "type": "function",
      "constant": true
    },
    {
      "inputs": [
        {
          "internalType": "uint256",
          "name": "tokenId",
          "type": "uint256"
        }
      ],
      "name": "tokenURI",
      "outputs": [
        {
          "internalType": "string",
          "name": "",
          "type": "string"
        }
      ],
      "stateMutability": "view",
      "type": "function",
      "constant": true
    },
    {
      "inputs": [
        {
          "internalType": "address",
          "name": "from",
          "type": "address"
        },
        {
          "internalType": "address",
          "name": "to",
          "type": "address"
        },
        {
          "internalType": "uint256",
          "name": "tokenId",
          "type": "uint256"
        }
      ],
      "name": "transferFrom",
      "outputs": [],
      "stateMutability": "nonpayable",
      "type": "function"
    },
    {
      "inputs": [
        {
          "internalType": "address",
          "name": "newOwner",
          "type": "address"
        }
      ],
      "name": "transferOwnership",
      "outputs": [],
      "stateMutability": "nonpayable",
      "type": "function"
    },
    {
      "inputs": [
        {
          "internalType": "uint256",
          "name": "tokenID",
          "type": "uint256"
        }
      ],
      "name": "getTokenDetails",
      "outputs": [
        {
          "components": [
            {
              "internalType": "uint8",
              "name": "damage",
              "type": "uint8"
            },
            {
              "internalType": "uint8",
              "name": "magic",
              "type": "uint8"
            },
            {
              "internalType": "uint256",
              "name": "lastMeal",
              "type": "uint256"
            },
            {
              "internalType": "uint256",
              "name": "endurance",
              "type": "uint256"
            }
          ],
          "internalType": "struct Token.Pet",
          "name": "",
          "type": "tuple"
        }
      ],
      "stateMutability": "view",
      "type": "function",
      "constant": true
    },
    {
      "inputs": [
        {
          "internalType": "uint8",
          "name": "damage",
          "type": "uint8"
        },
        {
          "internalType": "uint8",
          "name": "magic",
          "type": "uint8"
        },
        {
          "internalType": "uint256",
          "name": "endurance",
          "type": "uint256"
        }
      ],
      "name": "mint",
      "outputs": [],
      "stateMutability": "nonpayable",
      "type": "function"
    },
    {
      "inputs": [
        {
          "internalType": "uint256",
          "name": "tokenId",
          "type": "uint256"
        }
      ],
      "name": "feed",
      "outputs": [],
      "stateMutability": "nonpayable",
      "type": "function"
    },
    {
      "inputs": [
        {
          "internalType": "address",
          "name": "user",
          "type": "address"
        }
      ],
      "name": "getAllTokensForUser",
      "outputs": [
        {
          "internalType": "uint256[]",
          "name": "",
          "type": "uint256[]"
        }
      ],
      "stateMutability": "view",
      "type": "function",
      "constant": true
    }
  ],
  "bytecode": "0x608060405260006007553480156200001657600080fd5b50604051620034dc380380620034dc83398181016040528101906200003c9190620002f7565b818181600090816200004f9190620005c7565b508060019081620000619190620005c7565b50505062000084620000786200008c60201b60201c565b6200009460201b60201c565b5050620006ae565b600033905090565b6000600660009054906101000a900473ffffffffffffffffffffffffffffffffffffffff16905081600660006101000a81548173ffffffffffffffffffffffffffffffffffffffff021916908373ffffffffffffffffffffffffffffffffffffffff1602179055508173ffffffffffffffffffffffffffffffffffffffff168173ffffffffffffffffffffffffffffffffffffffff167f8be0079c531659141344cd1fd0a4f28419497f9722a3daafe3b4186f6b6457e060405160405180910390a35050565b6000604051905090565b600080fd5b600080fd5b600080fd5b600080fd5b6000601f19601f8301169050919050565b7f4e487b7100000000000000000000000000000000000000000000000000000000600052604160045260246000fd5b620001c38262000178565b810181811067ffffffffffffffff82111715620001e557620001e462000189565b5b80604052505050565b6000620001fa6200015a565b9050620002088282620001b8565b919050565b600067ffffffffffffffff8211156200022b576200022a62000189565b5b620002368262000178565b9050602081019050919050565b60005b838110156200026357808201518184015260208101905062000246565b8381111562000273576000848401525b50505050565b6000620002906200028a846200020d565b620001ee565b905082815260208101848484011115620002af57620002ae62000173565b5b620002bc84828562000243565b509392505050565b600082601f830112620002dc57620002db6200016e565b5b8151620002ee84826020860162000279565b91505092915050565b6000806040838503121562000311576200031062000164565b5b600083015167ffffffffffffffff81111562000332576200033162000169565b5b6200034085828601620002c4565b925050602083015167ffffffffffffffff81111562000364576200036362000169565b5b6200037285828601620002c4565b9150509250929050565b600081519050919050565b7f4e487b7100000000000000000000000000000000000000000000000000000000600052602260045260246000fd5b60006002820490506001821680620003cf57607f821691505b602082108103620003e557620003e462000387565b5b50919050565b60008190508160005260206000209050919050565b60006020601f8301049050919050565b600082821b905092915050565b6000600883026200044f7fffffffffffffffffffffffffffffffffffffffffffffffffffffffffffffffff8262000410565b6200045b868362000410565b95508019841693508086168417925050509392505050565b6000819050919050565b6000819050919050565b6000620004a8620004a26200049c8462000473565b6200047d565b62000473565b9050919050565b6000819050919050565b620004c48362000487565b620004dc620004d382620004af565b8484546200041d565b825550505050565b600090565b620004f3620004e4565b62000500818484620004b9565b505050565b5b8181101562000528576200051c600082620004e9565b60018101905062000506565b5050565b601f82111562000577576200054181620003eb565b6200054c8462000400565b810160208510156200055c578190505b620005746200056b8562000400565b83018262000505565b50505b505050565b600082821c905092915050565b60006200059c600019846008026200057c565b1980831691505092915050565b6000620005b7838362000589565b9150826002028217905092915050565b620005d2826200037c565b67ffffffffffffffff811115620005ee57620005ed62000189565b5b620005fa8254620003b6565b620006078282856200052c565b600060209050601f8311600181146200063f57600084156200062a578287015190505b620006368582620005a9565b865550620006a6565b601f1984166200064f86620003eb565b60005b82811015620006795784890151825560018201915060208501945060208101905062000652565b8683101562000699578489015162000695601f89168262000589565b8355505b6001600288020188555050505b505050505050565b612e1e80620006be6000396000f3fe608060405234801561001057600080fd5b506004361061012c5760003560e01c80638da5cb5b116100ad578063c87b56dd11610071578063c87b56dd14610341578063e985e9c514610371578063eb22ed32146103a1578063f2fde38b146103bd578063f59dfdfb146103d95761012c565b80638da5cb5b1461029d57806395d89b41146102bb578063a22cb465146102d9578063b88d4fde146102f5578063c1e03728146103115761012c565b806342842e0e116100f457806342842e0e146101e75780636352211e1461020357806370a0823114610233578063715018a61461026357806382de8fe91461026d5761012c565b806301ffc9a71461013157806306fdde0314610161578063081812fc1461017f578063095ea7b3146101af57806323b872dd146101cb575b600080fd5b61014b60048036038101906101469190611c96565b6103f5565b6040516101589190611cde565b60405180910390f35b6101696104d7565b6040516101769190611d92565b60405180910390f35b61019960048036038101906101949190611dea565b610569565b6040516101a69190611e58565b60405180910390f35b6101c960048036038101906101c49190611e9f565b6105af565b005b6101e560048036038101906101e09190611edf565b6106c6565b005b61020160048036038101906101fc9190611edf565b610726565b005b61021d60048036038101906102189190611dea565b610746565b60405161022a9190611e58565b60405180910390f35b61024d60048036038101906102489190611f32565b6107f7565b60405161025a9190611f6e565b60405180910390f35b61026b6108ae565b005b61028760048036038101906102829190611f32565b6108c2565b6040516102949190612047565b60405180910390f35b6102a5610a16565b6040516102b29190611e58565b60405180910390f35b6102c3610a40565b6040516102d09190611d92565b60405180910390f35b6102f360048036038101906102ee9190612095565b610ad2565b005b61030f600480360381019061030a919061220a565b610ae8565b005b61032b60048036038101906103269190611dea565b610b4a565b60405161033891906122fe565b60405180910390f35b61035b60048036038101906103569190611dea565b610bc5565b6040516103689190611d92565b60405180910390f35b61038b60048036038101906103869190612319565b610c2d565b6040516103989190611cde565b60405180910390f35b6103bb60048036038101906103b69190612385565b610cc1565b005b6103d760048036038101906103d29190611f32565b610d87565b005b6103f360048036038101906103ee9190611dea565b610e0a565b005b60007f80ac58cd000000000000000000000000000000000000000000000000000000007bffffffffffffffffffffffffffffffffffffffffffffffffffffffff1916827bffffffffffffffffffffffffffffffffffffffffffffffffffffffff191614806104c057507f5b5e139f000000000000000000000000000000000000000000000000000000007bffffffffffffffffffffffffffffffffffffffffffffffffffffffff1916827bffffffffffffffffffffffffffffffffffffffffffffffffffffffff1916145b806104d057506104cf82610e5f565b5b9050919050565b6060600080546104e690612407565b80601f016020809104026020016040519081016040528092919081815260200182805461051290612407565b801561055f5780601f106105345761010080835404028352916020019161055f565b820191906000526020600020905b81548152906001019060200180831161054257829003601f168201915b5050505050905090565b600061057482610ec9565b6004600083815260200190815260200160002060009054906101000a900473ffffffffffffffffffffffffffffffffffffffff169050919050565b60006105ba82610746565b90508073ffffffffffffffffffffffffffffffffffffffff168373ffffffffffffffffffffffffffffffffffffffff160361062a576040517f08c379a0000000000000000000000000000000000000000000000000000000008152600401610621906124aa565b60405180910390fd5b8073ffffffffffffffffffffffffffffffffffffffff16610649610f14565b73ffffffffffffffffffffffffffffffffffffffff161480610678575061067781610672610f14565b610c2d565b5b6106b7576040517f08c379a00000000000000000000000000000000000000000000000000000000081526004016106ae9061253c565b60405180910390fd5b6106c18383610f1c565b505050565b6106d76106d1610f14565b82610fd5565b610716576040517f08c379a000000000000000000000000000000000000000000000000000000000815260040161070d906125ce565b60405180910390fd5b61072183838361106a565b505050565b61074183838360405180602001604052806000815250610ae8565b505050565b6000806002600084815260200190815260200160002060009054906101000a900473ffffffffffffffffffffffffffffffffffffffff169050600073ffffffffffffffffffffffffffffffffffffffff168173ffffffffffffffffffffffffffffffffffffffff16036107ee576040517f08c379a00000000000000000000000000000000000000000000000000000000081526004016107e59061263a565b60405180910390fd5b80915050919050565b60008073ffffffffffffffffffffffffffffffffffffffff168273ffffffffffffffffffffffffffffffffffffffff1603610867576040517f08c379a000000000000000000000000000000000000000000000000000000000815260040161085e906126cc565b60405180910390fd5b600360008373ffffffffffffffffffffffffffffffffffffffff1673ffffffffffffffffffffffffffffffffffffffff168152602001908152602001600020549050919050565b6108b66112d0565b6108c0600061134e565b565b606060006108cf836107f7565b90506000810361092b57600067ffffffffffffffff8111156108f4576108f36120df565b5b6040519080825280602002602001820160405280156109225781602001602082028036833780820191505090505b50915050610a11565b60008167ffffffffffffffff811115610947576109466120df565b5b6040519080825280602002602001820160405280156109755781602001602082028036833780820191505090505b509050600060075490506000805b82811015610a08578673ffffffffffffffffffffffffffffffffffffffff166109ab82610746565b73ffffffffffffffffffffffffffffffffffffffff16036109f557808483815181106109da576109d96126ec565b5b60200260200101818152505081806109f19061274a565b9250505b8080610a009061274a565b915050610983565b83955050505050505b919050565b6000600660009054906101000a900473ffffffffffffffffffffffffffffffffffffffff16905090565b606060018054610a4f90612407565b80601f0160208091040260200160405190810160405280929190818152602001828054610a7b90612407565b8015610ac85780601f10610a9d57610100808354040283529160200191610ac8565b820191906000526020600020905b815481529060010190602001808311610aab57829003601f168201915b5050505050905090565b610ae4610add610f14565b8383611414565b5050565b610af9610af3610f14565b83610fd5565b610b38576040517f08c379a0000000000000000000000000000000000000000000000000000000008152600401610b2f906125ce565b60405180910390fd5b610b4484848484611580565b50505050565b610b52611bfc565b600860008381526020019081526020016000206040518060800160405290816000820160009054906101000a900460ff1660ff1660ff1681526020016000820160019054906101000a900460ff1660ff1660ff168152602001600182015481526020016002820154815250509050919050565b6060610bd082610ec9565b6000610bda6115dc565b90506000815111610bfa5760405180602001604052806000815250610c25565b80610c04846115f3565b604051602001610c159291906127ce565b6040516020818303038152906040525b915050919050565b6000600560008473ffffffffffffffffffffffffffffffffffffffff1673ffffffffffffffffffffffffffffffffffffffff16815260200190815260200160002060008373ffffffffffffffffffffffffffffffffffffffff1673ffffffffffffffffffffffffffffffffffffffff16815260200190815260200160002060009054906101000a900460ff16905092915050565b610cc96112d0565b60405180608001604052808460ff1681526020018360ff1681526020014281526020018281525060086000600754815260200190815260200160002060008201518160000160006101000a81548160ff021916908360ff16021790555060208201518160000160016101000a81548160ff021916908360ff1602179055506040820151816001015560608201518160020155905050610d6a33600754611753565b60076000815480929190610d7d9061274a565b9190505550505050565b610d8f6112d0565b600073ffffffffffffffffffffffffffffffffffffffff168173ffffffffffffffffffffffffffffffffffffffff1603610dfe576040517f08c379a0000000000000000000000000000000000000000000000000000000008152600401610df590612864565b60405180910390fd5b610e078161134e565b50565b60006008600083815260200190815260200160002090504281600201548260010154610e369190612884565b11610e4057600080fd5b4260086000848152602001908152602001600020600101819055505050565b60007f01ffc9a7000000000000000000000000000000000000000000000000000000007bffffffffffffffffffffffffffffffffffffffffffffffffffffffff1916827bffffffffffffffffffffffffffffffffffffffffffffffffffffffff1916149050919050565b610ed281611771565b610f11576040517f08c379a0000000000000000000000000000000000000000000000000000000008152600401610f089061263a565b60405180910390fd5b50565b600033905090565b816004600083815260200190815260200160002060006101000a81548173ffffffffffffffffffffffffffffffffffffffff021916908373ffffffffffffffffffffffffffffffffffffffff160217905550808273ffffffffffffffffffffffffffffffffffffffff16610f8f83610746565b73ffffffffffffffffffffffffffffffffffffffff167f8c5be1e5ebec7d5bd14f71427d1e84f3dd0314c0f7b2291e5b200ac8c7c3b92560405160405180910390a45050565b600080610fe183610746565b90508073ffffffffffffffffffffffffffffffffffffffff168473ffffffffffffffffffffffffffffffffffffffff16148061102357506110228185610c2d565b5b8061106157508373ffffffffffffffffffffffffffffffffffffffff1661104984610569565b73ffffffffffffffffffffffffffffffffffffffff16145b91505092915050565b8273ffffffffffffffffffffffffffffffffffffffff1661108a82610746565b73ffffffffffffffffffffffffffffffffffffffff16146110e0576040517f08c379a00000000000000000000000000000000000000000000000000000000081526004016110d79061294c565b60405180910390fd5b600073ffffffffffffffffffffffffffffffffffffffff168273ffffffffffffffffffffffffffffffffffffffff160361114f576040517f08c379a0000000000000000000000000000000000000000000000000000000008152600401611146906129de565b60405180910390fd5b61115a8383836117dd565b611165600082610f1c565b6001600360008573ffffffffffffffffffffffffffffffffffffffff1673ffffffffffffffffffffffffffffffffffffffff16815260200190815260200160002060008282546111b591906129fe565b925050819055506001600360008473ffffffffffffffffffffffffffffffffffffffff1673ffffffffffffffffffffffffffffffffffffffff168152602001908152602001600020600082825461120c9190612884565b92505081905550816002600083815260200190815260200160002060006101000a81548173ffffffffffffffffffffffffffffffffffffffff021916908373ffffffffffffffffffffffffffffffffffffffff160217905550808273ffffffffffffffffffffffffffffffffffffffff168473ffffffffffffffffffffffffffffffffffffffff167fddf252ad1be2c89b69c2b068fc378daa952ba7f163c4a11628f55a4df523b3ef60405160405180910390a46112cb838383611819565b505050565b6112d8610f14565b73ffffffffffffffffffffffffffffffffffffffff166112f6610a16565b73ffffffffffffffffffffffffffffffffffffffff161461134c576040517f08c379a000000000000000000000000000000000000000000000000000000000815260040161134390612a7e565b60405180910390fd5b565b6000600660009054906101000a900473ffffffffffffffffffffffffffffffffffffffff16905081600660006101000a81548173ffffffffffffffffffffffffffffffffffffffff021916908373ffffffffffffffffffffffffffffffffffffffff1602179055508173ffffffffffffffffffffffffffffffffffffffff168173ffffffffffffffffffffffffffffffffffffffff167f8be0079c531659141344cd1fd0a4f28419497f9722a3daafe3b4186f6b6457e060405160405180910390a35050565b8173ffffffffffffffffffffffffffffffffffffffff168373ffffffffffffffffffffffffffffffffffffffff1603611482576040517f08c379a000000000000000000000000000000000000000000000000000000000815260040161147990612aea565b60405180910390fd5b80600560008573ffffffffffffffffffffffffffffffffffffffff1673ffffffffffffffffffffffffffffffffffffffff16815260200190815260200160002060008473ffffffffffffffffffffffffffffffffffffffff1673ffffffffffffffffffffffffffffffffffffffff16815260200190815260200160002060006101000a81548160ff0219169083151502179055508173ffffffffffffffffffffffffffffffffffffffff168373ffffffffffffffffffffffffffffffffffffffff167f17307eab39ab6107e8899845ad3d59bd9653f200f220920489ca2b5937696c31836040516115739190611cde565b60405180910390a3505050565b61158b84848461106a565b6115978484848461181e565b6115d6576040517f08c379a00000000000000000000000000000000000000000000000000000000081526004016115cd90612b7c565b60405180910390fd5b50505050565b606060405180602001604052806000815250905090565b60606000820361163a576040518060400160405280600181526020017f3000000000000000000000000000000000000000000000000000000000000000815250905061174e565b600082905060005b6000821461166c5780806116559061274a565b915050600a826116659190612bcb565b9150611642565b60008167ffffffffffffffff811115611688576116876120df565b5b6040519080825280601f01601f1916602001820160405280156116ba5781602001600182028036833780820191505090505b5090505b60008514611747576001826116d391906129fe565b9150600a856116e29190612bfc565b60306116ee9190612884565b60f81b818381518110611704576117036126ec565b5b60200101907effffffffffffffffffffffffffffffffffffffffffffffffffffffffffffff1916908160001a905350600a856117409190612bcb565b94506116be565b8093505050505b919050565b61176d8282604051806020016040528060008152506119a5565b5050565b60008073ffffffffffffffffffffffffffffffffffffffff166002600084815260200190815260200160002060009054906101000a900473ffffffffffffffffffffffffffffffffffffffff1673ffffffffffffffffffffffffffffffffffffffff1614159050919050565b600060086000838152602001908152602001600020905042816002015482600101546118099190612884565b1161181357600080fd5b50505050565b505050565b600061183f8473ffffffffffffffffffffffffffffffffffffffff16611a00565b15611998578373ffffffffffffffffffffffffffffffffffffffff1663150b7a02611868610f14565b8786866040518563ffffffff1660e01b815260040161188a9493929190612c82565b6020604051808303816000875af19250505080156118c657506040513d601f19601f820116820180604052508101906118c39190612ce3565b60015b611948573d80600081146118f6576040519150601f19603f3d011682016040523d82523d6000602084013e6118fb565b606091505b506000815103611940576040517f08c379a000000000000000000000000000000000000000000000000000000000815260040161193790612b7c565b60405180910390fd5b805181602001fd5b63150b7a0260e01b7bffffffffffffffffffffffffffffffffffffffffffffffffffffffff1916817bffffffffffffffffffffffffffffffffffffffffffffffffffffffff19161491505061199d565b600190505b949350505050565b6119af8383611a23565b6119bc600084848461181e565b6119fb576040517f08c379a00000000000000000000000000000000000000000000000000000000081526004016119f290612b7c565b60405180910390fd5b505050565b6000808273ffffffffffffffffffffffffffffffffffffffff163b119050919050565b600073ffffffffffffffffffffffffffffffffffffffff168273ffffffffffffffffffffffffffffffffffffffff1603611a92576040517f08c379a0000000000000000000000000000000000000000000000000000000008152600401611a8990612d5c565b60405180910390fd5b611a9b81611771565b15611adb576040517f08c379a0000000000000000000000000000000000000000000000000000000008152600401611ad290612dc8565b60405180910390fd5b611ae7600083836117dd565b6001600360008473ffffffffffffffffffffffffffffffffffffffff1673ffffffffffffffffffffffffffffffffffffffff1681526020019081526020016000206000828254611b379190612884565b92505081905550816002600083815260200190815260200160002060006101000a81548173ffffffffffffffffffffffffffffffffffffffff021916908373ffffffffffffffffffffffffffffffffffffffff160217905550808273ffffffffffffffffffffffffffffffffffffffff16600073ffffffffffffffffffffffffffffffffffffffff167fddf252ad1be2c89b69c2b068fc378daa952ba7f163c4a11628f55a4df523b3ef60405160405180910390a4611bf860008383611819565b5050565b6040518060800160405280600060ff168152602001600060ff16815260200160008152602001600081525090565b6000604051905090565b600080fd5b600080fd5b60007fffffffff0000000000000000000000000000000000000000000000000000000082169050919050565b611c7381611c3e565b8114611c7e57600080fd5b50565b600081359050611c9081611c6a565b92915050565b600060208284031215611cac57611cab611c34565b5b6000611cba84828501611c81565b91505092915050565b60008115159050919050565b611cd881611cc3565b82525050565b6000602082019050611cf36000830184611ccf565b92915050565b600081519050919050565b600082825260208201905092915050565b60005b83811015611d33578082015181840152602081019050611d18565b83811115611d42576000848401525b50505050565b6000601f19601f8301169050919050565b6000611d6482611cf9565b611d6e8185611d04565b9350611d7e818560208601611d15565b611d8781611d48565b840191505092915050565b60006020820190508181036000830152611dac8184611d59565b905092915050565b6000819050919050565b611dc781611db4565b8114611dd257600080fd5b50565b600081359050611de481611dbe565b92915050565b600060208284031215611e0057611dff611c34565b5b6000611e0e84828501611dd5565b91505092915050565b600073ffffffffffffffffffffffffffffffffffffffff82169050919050565b6000611e4282611e17565b9050919050565b611e5281611e37565b82525050565b6000602082019050611e6d6000830184611e49565b92915050565b611e7c81611e37565b8114611e8757600080fd5b50565b600081359050611e9981611e73565b92915050565b60008060408385031215611eb657611eb5611c34565b5b6000611ec485828601611e8a565b9250506020611ed585828601611dd5565b9150509250929050565b600080600060608486031215611ef857611ef7611c34565b5b6000611f0686828701611e8a565b9350506020611f1786828701611e8a565b9250506040611f2886828701611dd5565b9150509250925092565b600060208284031215611f4857611f47611c34565b5b6000611f5684828501611e8a565b91505092915050565b611f6881611db4565b82525050565b6000602082019050611f836000830184611f5f565b92915050565b600081519050919050565b600082825260208201905092915050565b6000819050602082019050919050565b611fbe81611db4565b82525050565b6000611fd08383611fb5565b60208301905092915050565b6000602082019050919050565b6000611ff482611f89565b611ffe8185611f94565b935061200983611fa5565b8060005b8381101561203a5781516120218882611fc4565b975061202c83611fdc565b92505060018101905061200d565b5085935050505092915050565b600060208201905081810360008301526120618184611fe9565b905092915050565b61207281611cc3565b811461207d57600080fd5b50565b60008135905061208f81612069565b92915050565b600080604083850312156120ac576120ab611c34565b5b60006120ba85828601611e8a565b92505060206120cb85828601612080565b9150509250929050565b600080fd5b600080fd5b7f4e487b7100000000000000000000000000000000000000000000000000000000600052604160045260246000fd5b61211782611d48565b810181811067ffffffffffffffff82111715612136576121356120df565b5b80604052505050565b6000612149611c2a565b9050612155828261210e565b919050565b600067ffffffffffffffff821115612175576121746120df565b5b61217e82611d48565b9050602081019050919050565b82818337600083830152505050565b60006121ad6121a88461215a565b61213f565b9050828152602081018484840111156121c9576121c86120da565b5b6121d484828561218b565b509392505050565b600082601f8301126121f1576121f06120d5565b5b813561220184826020860161219a565b91505092915050565b6000806000806080858703121561222457612223611c34565b5b600061223287828801611e8a565b945050602061224387828801611e8a565b935050604061225487828801611dd5565b925050606085013567ffffffffffffffff81111561227557612274611c39565b5b612281878288016121dc565b91505092959194509250565b600060ff82169050919050565b6122a38161228d565b82525050565b6080820160008201516122bf600085018261229a565b5060208201516122d2602085018261229a565b5060408201516122e56040850182611fb5565b5060608201516122f86060850182611fb5565b50505050565b600060808201905061231360008301846122a9565b92915050565b600080604083850312156123305761232f611c34565b5b600061233e85828601611e8a565b925050602061234f85828601611e8a565b9150509250929050565b6123628161228d565b811461236d57600080fd5b50565b60008135905061237f81612359565b92915050565b60008060006060848603121561239e5761239d611c34565b5b60006123ac86828701612370565b93505060206123bd86828701612370565b92505060406123ce86828701611dd5565b9150509250925092565b7f4e487b7100000000000000000000000000000000000000000000000000000000600052602260045260246000fd5b6000600282049050600182168061241f57607f821691505b602082108103612432576124316123d8565b5b50919050565b7f4552433732313a20617070726f76616c20746f2063757272656e74206f776e6560008201527f7200000000000000000000000000000000000000000000000000000000000000602082015250565b6000612494602183611d04565b915061249f82612438565b604082019050919050565b600060208201905081810360008301526124c381612487565b9050919050565b7f4552433732313a20617070726f76652063616c6c6572206973206e6f7420746f60008201527f6b656e206f776e6572206e6f7220617070726f76656420666f7220616c6c0000602082015250565b6000612526603e83611d04565b9150612531826124ca565b604082019050919050565b6000602082019050818103600083015261255581612519565b9050919050565b7f4552433732313a2063616c6c6572206973206e6f7420746f6b656e206f776e6560008201527f72206e6f7220617070726f766564000000000000000000000000000000000000602082015250565b60006125b8602e83611d04565b91506125c38261255c565b604082019050919050565b600060208201905081810360008301526125e7816125ab565b9050919050565b7f4552433732313a20696e76616c696420746f6b656e2049440000000000000000600082015250565b6000612624601883611d04565b915061262f826125ee565b602082019050919050565b6000602082019050818103600083015261265381612617565b9050919050565b7f4552433732313a2061646472657373207a65726f206973206e6f74206120766160008201527f6c6964206f776e65720000000000000000000000000000000000000000000000602082015250565b60006126b6602983611d04565b91506126c18261265a565b604082019050919050565b600060208201905081810360008301526126e5816126a9565b9050919050565b7f4e487b7100000000000000000000000000000000000000000000000000000000600052603260045260246000fd5b7f4e487b7100000000000000000000000000000000000000000000000000000000600052601160045260246000fd5b600061275582611db4565b91507fffffffffffffffffffffffffffffffffffffffffffffffffffffffffffffffff82036127875761278661271b565b5b600182019050919050565b600081905092915050565b60006127a882611cf9565b6127b28185612792565b93506127c2818560208601611d15565b80840191505092915050565b60006127da828561279d565b91506127e6828461279d565b91508190509392505050565b7f4f776e61626c653a206e6577206f776e657220697320746865207a65726f206160008201527f6464726573730000000000000000000000000000000000000000000000000000602082015250565b600061284e602683611d04565b9150612859826127f2565b604082019050919050565b6000602082019050818103600083015261287d81612841565b9050919050565b600061288f82611db4565b915061289a83611db4565b9250827fffffffffffffffffffffffffffffffffffffffffffffffffffffffffffffffff038211156128cf576128ce61271b565b5b828201905092915050565b7f4552433732313a207472616e736665722066726f6d20696e636f72726563742060008201527f6f776e6572000000000000000000000000000000000000000000000000000000602082015250565b6000612936602583611d04565b9150612941826128da565b604082019050919050565b6000602082019050818103600083015261296581612929565b9050919050565b7f4552433732313a207472616e7366657220746f20746865207a65726f2061646460008201527f7265737300000000000000000000000000000000000000000000000000000000602082015250565b60006129c8602483611d04565b91506129d38261296c565b604082019050919050565b600060208201905081810360008301526129f7816129bb565b9050919050565b6000612a0982611db4565b9150612a1483611db4565b925082821015612a2757612a2661271b565b5b828203905092915050565b7f4f776e61626c653a2063616c6c6572206973206e6f7420746865206f776e6572600082015250565b6000612a68602083611d04565b9150612a7382612a32565b602082019050919050565b60006020820190508181036000830152612a9781612a5b565b9050919050565b7f4552433732313a20617070726f766520746f2063616c6c657200000000000000600082015250565b6000612ad4601983611d04565b9150612adf82612a9e565b602082019050919050565b60006020820190508181036000830152612b0381612ac7565b9050919050565b7f4552433732313a207472616e7366657220746f206e6f6e20455243373231526560008201527f63656976657220696d706c656d656e7465720000000000000000000000000000602082015250565b6000612b66603283611d04565b9150612b7182612b0a565b604082019050919050565b60006020820190508181036000830152612b9581612b59565b9050919050565b7f4e487b7100000000000000000000000000000000000000000000000000000000600052601260045260246000fd5b6000612bd682611db4565b9150612be183611db4565b925082612bf157612bf0612b9c565b5b828204905092915050565b6000612c0782611db4565b9150612c1283611db4565b925082612c2257612c21612b9c565b5b828206905092915050565b600081519050919050565b600082825260208201905092915050565b6000612c5482612c2d565b612c5e8185612c38565b9350612c6e818560208601611d15565b612c7781611d48565b840191505092915050565b6000608082019050612c976000830187611e49565b612ca46020830186611e49565b612cb16040830185611f5f565b8181036060830152612cc38184612c49565b905095945050505050565b600081519050612cdd81611c6a565b92915050565b600060208284031215612cf957612cf8611c34565b5b6000612d0784828501612cce565b91505092915050565b7f4552433732313a206d696e7420746f20746865207a65726f2061646472657373600082015250565b6000612d46602083611d04565b9150612d5182612d10565b602082019050919050565b60006020820190508181036000830152612d7581612d39565b9050919050565b7f4552433732313a20746f6b656e20616c7265616479206d696e74656400000000600082015250565b6000612db2601c83611d04565b9150612dbd82612d7c565b602082019050919050565b60006020820190508181036000830152612de181612da5565b905091905056fea2646970667358221220adddcd8cb660b74328c129ae5fdbf8a1aded2961dd2117e308a3223946fe410d64736f6c634300080f0033",
  "immutableReferences": {},
  "source": "pragma solidity >=0.4.22 <0.9.0;\n\nimport \"../node_modules/@openzeppelin/contracts/token/ERC721/ERC721.sol\";\n\nimport \"../node_modules/@openzeppelin/contracts/access/Ownable.sol\";\n\n\ncontract Token is ERC721, Ownable{\n\n    struct Pet{\n        \n\n        uint8 damage; // 0-255\n        uint8 magic;\n        uint256 lastMeal;\n        uint256 endurance;\n\n    }\n    uint256 nextId = 0;\n\n    mapping(uint256 => Pet) private _tokenDetails;\n\n    constructor(string memory name, string memory symbol) ERC721(name, symbol){\n\n    }\n\n    function getTokenDetails(uint256 tokenID) public view returns (Pet memory){\n        return _tokenDetails[tokenID];\n\n    }\n\n\n    function mint(uint8 damage, uint8 magic, uint256 endurance) public onlyOwner{\n        _tokenDetails[nextId] = Pet(damage,magic,block.timestamp,endurance);\n        _safeMint(msg.sender, nextId);\n        nextId++;\n        \n    }\n\n    function feed(uint256 tokenId) public {\n        Pet storage pet = _tokenDetails[tokenId];\n        require(pet.lastMeal + pet.endurance > block.timestamp);\n        _tokenDetails[tokenId].lastMeal = block.timestamp;\n    }\n\n    function getAllTokensForUser(address user) public view returns (uint256[] memory){\n        uint256 tokenCount = balanceOf(user);\n        if(tokenCount == 0){\n            return new uint256[](0);\n        } else {\n            uint[] memory result = new uint256[](tokenCount);\n            uint256 totalPets = nextId;\n            uint256 resultIndex = 0;\n            uint256 i;\n            for(i = 0; i < totalPets; i++){\n                if(ownerOf(i) == user){\n                    result[resultIndex] = i;\n                    resultIndex++;\n\n                }\n            }\n            return result;\n\n        }\n\n\n    }\n\n\n    function _beforeTokenTransfer(address from,address to,uint256 tokenId) view internal override {\n        Pet storage pet = _tokenDetails[tokenId];\n        require(pet.lastMeal + pet.endurance > block.timestamp); // Pet still alive\n\n    }\n\n\n}",
  "sourcePath": "/home/timbowarrior/Downloads/NFT-Game/contracts/token.sol",
  "compiler": {
    "name": "solc",
    "version": "0.8.15+commit.e14f2714.Emscripten.clang"
  },
  "schemaVersion": "3.4.4",
  "updatedAt": "2022-07-20T18:37:26.906Z",
  "networkType": "ethereum",
  "devdoc": {
    "kind": "dev",
    "methods": {
      "approve(address,uint256)": {
        "details": "See {IERC721-approve}."
      },
      "balanceOf(address)": {
        "details": "See {IERC721-balanceOf}."
      },
      "getApproved(uint256)": {
        "details": "See {IERC721-getApproved}."
      },
      "isApprovedForAll(address,address)": {
        "details": "See {IERC721-isApprovedForAll}."
      },
      "name()": {
        "details": "See {IERC721Metadata-name}."
      },
      "owner()": {
        "details": "Returns the address of the current owner."
      },
      "ownerOf(uint256)": {
        "details": "See {IERC721-ownerOf}."
      },
      "renounceOwnership()": {
        "details": "Leaves the contract without owner. It will not be possible to call `onlyOwner` functions anymore. Can only be called by the current owner. NOTE: Renouncing ownership will leave the contract without an owner, thereby removing any functionality that is only available to the owner."
      },
      "safeTransferFrom(address,address,uint256)": {
        "details": "See {IERC721-safeTransferFrom}."
      },
      "safeTransferFrom(address,address,uint256,bytes)": {
        "details": "See {IERC721-safeTransferFrom}."
      },
      "setApprovalForAll(address,bool)": {
        "details": "See {IERC721-setApprovalForAll}."
      },
      "supportsInterface(bytes4)": {
        "details": "See {IERC165-supportsInterface}."
      },
      "symbol()": {
        "details": "See {IERC721Metadata-symbol}."
      },
      "tokenURI(uint256)": {
        "details": "See {IERC721Metadata-tokenURI}."
      },
      "transferFrom(address,address,uint256)": {
        "details": "See {IERC721-transferFrom}."
      },
      "transferOwnership(address)": {
        "details": "Transfers ownership of the contract to a new account (`newOwner`). Can only be called by the current owner."
      }
    },
    "version": 1
  },
  "userdoc": {
    "kind": "user",
    "methods": {},
    "version": 1
  }
}